{
  "_format": "hh-sol-artifact-1",
  "contractName": "AncestralHeritageFacet",
  "sourceName": "contracts/facets/AncestralHeritageFacet.sol",
  "abi": [
    {
      "inputs": [],
      "name": "InvalidTribeConfiguration",
      "type": "error"
    },
    {
      "inputs": [],
      "name": "LayerAlreadyInitiated",
      "type": "error"
    },
    {
      "inputs": [],
      "name": "ModifierBoundsViolated",
      "type": "error"
    },
    {
      "inputs": [],
      "name": "SystemNotInitialized",
      "type": "error"
    },
    {
      "anonymous": false,
      "inputs": [
        {
          "indexed": true,
          "internalType": "address",
          "name": "pioneer",
          "type": "address"
        },
        {
          "indexed": true,
          "internalType": "uint256",
          "name": "tribeId",
          "type": "uint256"
        },
        {
          "indexed": false,
          "internalType": "uint256",
          "name": "passiveBuff",
          "type": "uint256"
        }
      ],
      "name": "CradleAwakened",
      "type": "event"
    },
    {
      "anonymous": false,
      "inputs": [],
      "name": "MatrixSynchronized",
      "type": "event"
    },
    {
      "inputs": [
        {
          "internalType": "uint256",
          "name": "_tribeId",
          "type": "uint256"
        },
        {
          "internalType": "uint256",
          "name": "_passiveSelection",
          "type": "uint256"
        }
      ],
      "name": "awakenCradleIdentity",
      "outputs": [],
      "stateMutability": "nonpayable",
      "type": "function"
    },
    {
      "inputs": [
        {
          "internalType": "address",
          "name": "_pioneer",
          "type": "address"
        }
      ],
      "name": "getPlayerProfile",
      "outputs": [
        {
          "components": [
            {
              "internalType": "uint256",
              "name": "chosenTribeId",
              "type": "uint256"
            },
            {
              "internalType": "uint256",
              "name": "selectedPassiveBuff",
              "type": "uint256"
            },
            {
              "internalType": "uint256",
              "name": "ancestralAwakeningTime",
              "type": "uint256"
            },
            {
              "internalType": "uint256",
              "name": "ubuntuPointsBalance",
              "type": "uint256"
            },
            {
              "internalType": "bool",
              "name": "isInitiated",
              "type": "bool"
            }
          ],
          "internalType": "struct LibTribalStorage.PlayerProfile",
          "name": "",
          "type": "tuple"
        }
      ],
      "stateMutability": "view",
      "type": "function"
    },
    {
      "inputs": [],
      "name": "initializeTribalMatrix",
      "outputs": [],
      "stateMutability": "nonpayable",
      "type": "function"
    }
  ],
  "bytecode": "0x608060405234801561001057600080fd5b50610baa806100206000396000f3fe608060405234801561001057600080fd5b50600436106100415760003560e01c806332c171dc146100465780637ac1605314610050578063d50f89891461006c575b600080fd5b61004e61009c565b005b61006a60048036038101906100659190610643565b610276565b005b610086600480360381019061008191906106e1565b610505565b60405161009391906107a0565b60405180910390f35b60006100a66105aa565b90508060030160009054906101000a900460ff16156100f1576040517f4f2867a000000000000000000000000000000000000000000000000000000000815260040160405180910390fd5b60405180608001604052806040518060400160405280601681526020017f4b686f652d53616e204669727374204e6174696f6e730000000000000000000081525081526020016040518060400160405280600481526020017f4b484f45000000000000000000000000000000000000000000000000000000008152508152602001600060e01b7bffffffffffffffffffffffffffffffffffffffffffffffffffffffff191681526020016001151581525081600101600080815260200190815260200160002060008201518160000190816101cc9190610a01565b5060208201518160010190816101e29190610a01565b5060408201518160020160006101000a81548163ffffffff021916908360e01c021790555060608201518160020160046101000a81548160ff02191690831515021790555090505060018160030160006101000a81548160ff0219169083151502179055507f856a54feea3d4ebeb2f67e72b4e16292ccd93355525459d2a316a0873757d6e160405160405180910390a150565b60006102806105aa565b90508060030160009054906101000a900460ff166102ca576040517f028c4d0700000000000000000000000000000000000000000000000000000000815260040160405180910390fd5b60008160000160003373ffffffffffffffffffffffffffffffffffffffff1673ffffffffffffffffffffffffffffffffffffffff16815260200190815260200160002090508060040160009054906101000a900460ff1615610358576040517f4f2867a000000000000000000000000000000000000000000000000000000000815260040160405180910390fd5b600c841115610393576040517fd23021cc00000000000000000000000000000000000000000000000000000000815260040160405180910390fd5b600c84036103ef5760008314806103aa5750600b83115b156103e1576040517f9408fab300000000000000000000000000000000000000000000000000000000815260040160405180910390fd5b828160010181905550610463565b600084118015610422575081600101600085815260200190815260200160002060020160049054906101000a900460ff16155b15610459576040517fd23021cc00000000000000000000000000000000000000000000000000000000815260040160405180910390fd5b8381600101819055505b83816000018190555042816002018190555060018160040160006101000a81548160ff0219169083151502179055508160020160008154809291906104a790610b02565b9190505550833373ffffffffffffffffffffffffffffffffffffffff167f140965f4c22ad17873b0774505af1126a4f904901db958f7d839da603319c74c83600101546040516104f79190610b59565b60405180910390a350505050565b61050d6105d7565b6105156105aa565b60000160008373ffffffffffffffffffffffffffffffffffffffff1673ffffffffffffffffffffffffffffffffffffffff1681526020019081526020016000206040518060a0016040529081600082015481526020016001820154815260200160028201548152602001600382015481526020016004820160009054906101000a900460ff1615151515815250509050919050565b6000807f156210eeddd50285dcc8780d14c67586686830bc7aa512711ad172d43d73f10790508091505090565b6040518060a00160405280600081526020016000815260200160008152602001600081526020016000151581525090565b600080fd5b6000819050919050565b6106208161060d565b811461062b57600080fd5b50565b60008135905061063d81610617565b92915050565b6000806040838503121561065a57610659610608565b5b60006106688582860161062e565b92505060206106798582860161062e565b9150509250929050565b600073ffffffffffffffffffffffffffffffffffffffff82169050919050565b60006106ae82610683565b9050919050565b6106be816106a3565b81146106c957600080fd5b50565b6000813590506106db816106b5565b92915050565b6000602082840312156106f7576106f6610608565b5b6000610705848285016106cc565b91505092915050565b6107178161060d565b82525050565b60008115159050919050565b6107328161071d565b82525050565b60a08201600082015161074e600085018261070e565b506020820151610761602085018261070e565b506040820151610774604085018261070e565b506060820151610787606085018261070e565b50608082015161079a6080850182610729565b50505050565b600060a0820190506107b56000830184610738565b92915050565b600081519050919050565b7f4e487b7100000000000000000000000000000000000000000000000000000000600052604160045260246000fd5b7f4e487b7100000000000000000000000000000000000000000000000000000000600052602260045260246000fd5b6000600282049050600182168061083c57607f821691505b60208210810361084f5761084e6107f5565b5b50919050565b60008190508160005260206000209050919050565b60006020601f8301049050919050565b600082821b905092915050565b6000600883026108b77fffffffffffffffffffffffffffffffffffffffffffffffffffffffffffffffff8261087a565b6108c1868361087a565b95508019841693508086168417925050509392505050565b6000819050919050565b60006108fe6108f96108f48461060d565b6108d9565b61060d565b9050919050565b6000819050919050565b610918836108e3565b61092c61092482610905565b848454610887565b825550505050565b600090565b610941610934565b61094c81848461090f565b505050565b5b8181101561097057610965600082610939565b600181019050610952565b5050565b601f8211156109b55761098681610855565b61098f8461086a565b8101602085101561099e578190505b6109b26109aa8561086a565b830182610951565b50505b505050565b600082821c905092915050565b60006109d8600019846008026109ba565b1980831691505092915050565b60006109f183836109c7565b9150826002028217905092915050565b610a0a826107bb565b67ffffffffffffffff811115610a2357610a226107c6565b5b610a2d8254610824565b610a38828285610974565b600060209050601f831160018114610a6b5760008415610a59578287015190505b610a6385826109e5565b865550610acb565b601f198416610a7986610855565b60005b82811015610aa157848901518255600182019150602085019450602081019050610a7c565b86831015610abe5784890151610aba601f8916826109c7565b8355505b6001600288020188555050505b505050505050565b7f4e487b7100000000000000000000000000000000000000000000000000000000600052601160045260246000fd5b6000610b0d8261060d565b91507fffffffffffffffffffffffffffffffffffffffffffffffffffffffffffffffff8203610b3f57610b3e610ad3565b5b600182019050919050565b610b538161060d565b82525050565b6000602082019050610b6e6000830184610b4a565b9291505056fea2646970667358221220d098d4304fe6a4c1c3add0042340d4952e003cd61672f517b1ee9b1c33c564db64736f6c63430008140033",
  "linkReferences": {},
  "deployedLinkReferences": {}
}