{
  "_format": "hh-sol-artifact-1",
  "contractName": "DiamondLoupeFacet",
  "sourceName": "contracts/facets/DiamondLoupeFacet.sol",
  "abi": [
    {
      "inputs": [
        {
          "internalType": "bytes4",
          "name": "_functionSelector",
          "type": "bytes4"
        }
      ],
      "name": "facetAddress",
      "outputs": [
        {
          "internalType": "address",
          "name": "facetAddress_",
          "type": "address"
        }
      ],
      "stateMutability": "view",
      "type": "function"
    },
    {
      "inputs": [],
      "name": "facetAddresses",
      "outputs": [
        {
          "internalType": "address[]",
          "name": "facetAddresses_",
          "type": "address[]"
        }
      ],
      "stateMutability": "view",
      "type": "function"
    },
    {
      "inputs": [
        {
          "internalType": "address",
          "name": "_facetAddress",
          "type": "address"
        }
      ],
      "name": "facetFunctionSelectors",
      "outputs": [
        {
          "internalType": "bytes4[]",
          "name": "functionSelectors_",
          "type": "bytes4[]"
        }
      ],
      "stateMutability": "view",
      "type": "function"
    },
    {
      "inputs": [],
      "name": "facets",
      "outputs": [
        {
          "components": [
            {
              "internalType": "address",
              "name": "facetAddress",
              "type": "address"
            },
            {
              "internalType": "bytes4[]",
              "name": "functionSelectors",
              "type": "bytes4[]"
            }
          ],
          "internalType": "struct IDiamondLoupe.Facet[]",
          "name": "facetAddresses_",
          "type": "tuple[]"
        }
      ],
      "stateMutability": "view",
      "type": "function"
    }
  ],
  "bytecode": "0x608060405234801561001057600080fd5b50611066806100206000396000f3fe608060405234801561001057600080fd5b506004361061004c5760003560e01c806352ef6b2c146100515780637a0ed6271461006f578063adfca15e1461008d578063cdffacc6146100bd575b600080fd5b6100596100ed565b6040516100669190610bb2565b60405180910390f35b6100776104ef565b6040516100849190610dbd565b60405180910390f35b6100a760048036038101906100a29190610e10565b6108f4565b6040516100b49190610eac565b60405180910390f35b6100d760048036038101906100d29190610efa565b6109dc565b6040516100e49190610f36565b60405180910390f35b606060006100f9610a65565b90506000805b82600401805490508110156102ee57600083600001600085600401848154811061012c5761012b610f51565b5b90600052602060002090600891828204019190066004029054906101000a900460e01b7bffffffffffffffffffffffffffffffffffffffffffffffffffffffff19167bffffffffffffffffffffffffffffffffffffffffffffffffffffffff1916815260200190815260200160002060009054906101000a900473ffffffffffffffffffffffffffffffffffffffff1690506000805b838110156102c4578273ffffffffffffffffffffffffffffffffffffffff168660000160008860040184815481106101fd576101fc610f51565b5b90600052602060002090600891828204019190066004029054906101000a900460e01b7bffffffffffffffffffffffffffffffffffffffffffffffffffffffff19167bffffffffffffffffffffffffffffffffffffffffffffffffffffffff1916815260200190815260200160002060009054906101000a900473ffffffffffffffffffffffffffffffffffffffff1673ffffffffffffffffffffffffffffffffffffffff16036102b157600191506102c4565b80806102bc90610fb9565b9150506101c2565b50806102d95783806102d590610fb9565b9450505b505080806102e690610fb9565b9150506100ff565b508067ffffffffffffffff81111561030957610308611001565b5b6040519080825280602002602001820160405280156103375781602001602082028036833780820191505090505b5092506000805b83600401805490508110156104e857600084600001600086600401848154811061036b5761036a610f51565b5b90600052602060002090600891828204019190066004029054906101000a900460e01b7bffffffffffffffffffffffffffffffffffffffffffffffffffffffff19167bffffffffffffffffffffffffffffffffffffffffffffffffffffffff1916815260200190815260200160002060009054906101000a900473ffffffffffffffffffffffffffffffffffffffff1690506000805b84811015610472578273ffffffffffffffffffffffffffffffffffffffff1688828151811061043357610432610f51565b5b602002602001015173ffffffffffffffffffffffffffffffffffffffff160361045f5760019150610472565b808061046a90610fb9565b915050610401565b50806104d3578187858061048590610fb9565b96508151811061049857610497610f51565b5b602002602001019073ffffffffffffffffffffffffffffffffffffffff16908173ffffffffffffffffffffffffffffffffffffffff16815250505b505080806104e090610fb9565b91505061033e565b5050505090565b606060006104fb610a65565b90506000808260040180549050905060008167ffffffffffffffff81111561052657610525611001565b5b6040519080825280602002602001820160405280156105545781602001602082028036833780820191505090505b50905060005b828110156106fd5760008560000160008760040184815481106105805761057f610f51565b5b90600052602060002090600891828204019190066004029054906101000a900460e01b7bffffffffffffffffffffffffffffffffffffffffffffffffffffffff19167bffffffffffffffffffffffffffffffffffffffffffffffffffffffff1916815260200190815260200160002060009054906101000a900473ffffffffffffffffffffffffffffffffffffffff1690506000805b86811015610687578273ffffffffffffffffffffffffffffffffffffffff1685828151811061064857610647610f51565b5b602002602001015173ffffffffffffffffffffffffffffffffffffffff16036106745760019150610687565b808061067f90610fb9565b915050610616565b50806106e8578184878061069a90610fb9565b9850815181106106ad576106ac610f51565b5b602002602001019073ffffffffffffffffffffffffffffffffffffffff16908173ffffffffffffffffffffffffffffffffffffffff16815250505b505080806106f590610fb9565b91505061055a565b508267ffffffffffffffff81111561071857610717611001565b5b60405190808252806020026020018201604052801561075157816020015b61073e610a92565b8152602001906001900390816107365790505b50945060005b838110156108ec5781818151811061077257610771610f51565b5b602002602001015186828151811061078d5761078c610f51565b5b60200260200101516000019073ffffffffffffffffffffffffffffffffffffffff16908173ffffffffffffffffffffffffffffffffffffffff16815250508460010160008383815181106107e4576107e3610f51565b5b602002602001015173ffffffffffffffffffffffffffffffffffffffff1673ffffffffffffffffffffffffffffffffffffffff1681526020019081526020016000208054806020026020016040519081016040528092919081815260200182805480156108b257602002820191906000526020600020906000905b82829054906101000a900460e01b7bffffffffffffffffffffffffffffffffffffffffffffffffffffffff19168152602001906004019060208260030104928301926001038202915080841161085f5790505b50505050508682815181106108ca576108c9610f51565b5b60200260200101516020018190525080806108e490610fb9565b915050610757565b505050505090565b60606000610900610a65565b90508060010160008473ffffffffffffffffffffffffffffffffffffffff1673ffffffffffffffffffffffffffffffffffffffff1681526020019081526020016000208054806020026020016040519081016040528092919081815260200182805480156109cf57602002820191906000526020600020906000905b82829054906101000a900460e01b7bffffffffffffffffffffffffffffffffffffffffffffffffffffffff19168152602001906004019060208260030104928301926001038202915080841161097c5790505b5050505050915050919050565b6000806109e7610a65565b9050806000016000847bffffffffffffffffffffffffffffffffffffffffffffffffffffffff19167bffffffffffffffffffffffffffffffffffffffffffffffffffffffff1916815260200190815260200160002060009054906101000a900473ffffffffffffffffffffffffffffffffffffffff16915050919050565b6000807fc8fcad8db84d3cc18b4c41d551ea0ee66dd599cde068d998e57d5e09332c131c90508091505090565b6040518060400160405280600073ffffffffffffffffffffffffffffffffffffffff168152602001606081525090565b600081519050919050565b600082825260208201905092915050565b6000819050602082019050919050565b600073ffffffffffffffffffffffffffffffffffffffff82169050919050565b6000610b1982610aee565b9050919050565b610b2981610b0e565b82525050565b6000610b3b8383610b20565b60208301905092915050565b6000602082019050919050565b6000610b5f82610ac2565b610b698185610acd565b9350610b7483610ade565b8060005b83811015610ba5578151610b8c8882610b2f565b9750610b9783610b47565b925050600181019050610b78565b5085935050505092915050565b60006020820190508181036000830152610bcc8184610b54565b905092915050565b600081519050919050565b600082825260208201905092915050565b6000819050602082019050919050565b600081519050919050565b600082825260208201905092915050565b6000819050602082019050919050565b60007fffffffff0000000000000000000000000000000000000000000000000000000082169050919050565b610c6181610c2c565b82525050565b6000610c738383610c58565b60208301905092915050565b6000602082019050919050565b6000610c9782610c00565b610ca18185610c0b565b9350610cac83610c1c565b8060005b83811015610cdd578151610cc48882610c67565b9750610ccf83610c7f565b925050600181019050610cb0565b5085935050505092915050565b6000604083016000830151610d026000860182610b20565b5060208301518482036020860152610d1a8282610c8c565b9150508091505092915050565b6000610d338383610cea565b905092915050565b6000602082019050919050565b6000610d5382610bd4565b610d5d8185610bdf565b935083602082028501610d6f85610bf0565b8060005b85811015610dab5784840389528151610d8c8582610d27565b9450610d9783610d3b565b925060208a01995050600181019050610d73565b50829750879550505050505092915050565b60006020820190508181036000830152610dd78184610d48565b905092915050565b600080fd5b610ded81610b0e565b8114610df857600080fd5b50565b600081359050610e0a81610de4565b92915050565b600060208284031215610e2657610e25610ddf565b5b6000610e3484828501610dfb565b91505092915050565b600082825260208201905092915050565b6000610e5982610c00565b610e638185610e3d565b9350610e6e83610c1c565b8060005b83811015610e9f578151610e868882610c67565b9750610e9183610c7f565b925050600181019050610e72565b5085935050505092915050565b60006020820190508181036000830152610ec68184610e4e565b905092915050565b610ed781610c2c565b8114610ee257600080fd5b50565b600081359050610ef481610ece565b92915050565b600060208284031215610f1057610f0f610ddf565b5b6000610f1e84828501610ee5565b91505092915050565b610f3081610b0e565b82525050565b6000602082019050610f4b6000830184610f27565b92915050565b7f4e487b7100000000000000000000000000000000000000000000000000000000600052603260045260246000fd5b7f4e487b7100000000000000000000000000000000000000000000000000000000600052601160045260246000fd5b6000819050919050565b6000610fc482610faf565b91507fffffffffffffffffffffffffffffffffffffffffffffffffffffffffffffffff8203610ff657610ff5610f80565b5b600182019050919050565b7f4e487b7100000000000000000000000000000000000000000000000000000000600052604160045260246000fdfea26469706673582212204bdcbec39ceb617f33fc2f25a1379b099f9f8a5517df48353dc55f1bc6a8d2ef64736f6c63430008140033",
  "linkReferences": {},
  "deployedLinkReferences": {}
}