{
  "_format": "hh-sol-artifact-1",
  "contractName": "HumanFactoryFacet",
  "sourceName": "contracts/facets/HumanFactoryFacet.sol",
  "abi": [
    {
      "anonymous": false,
      "inputs": [
        {
          "indexed": true,
          "internalType": "uint256",
          "name": "avatarId",
          "type": "uint256"
        },
        {
          "indexed": false,
          "internalType": "uint256",
          "name": "dna",
          "type": "uint256"
        }
      ],
      "name": "GenesisBreath",
      "type": "event"
    },
    {
      "anonymous": false,
      "inputs": [
        {
          "indexed": true,
          "internalType": "uint256",
          "name": "id",
          "type": "uint256"
        },
        {
          "indexed": false,
          "internalType": "uint256",
          "name": "dna",
          "type": "uint256"
        },
        {
          "indexed": false,
          "internalType": "uint256",
          "name": "cradleOrigin",
          "type": "uint256"
        },
        {
          "indexed": false,
          "internalType": "uint256",
          "name": "generation",
          "type": "uint256"
        }
      ],
      "name": "HumanCreated",
      "type": "event"
    },
    {
      "inputs": [
        {
          "internalType": "uint256",
          "name": "_dna",
          "type": "uint256"
        },
        {
          "internalType": "uint256",
          "name": "_cradleOrigin",
          "type": "uint256"
        }
      ],
      "name": "createHuman",
      "outputs": [
        {
          "internalType": "uint256",
          "name": "humanId",
          "type": "uint256"
        }
      ],
      "stateMutability": "nonpayable",
      "type": "function"
    },
    {
      "inputs": [],
      "name": "genesisBreath",
      "outputs": [
        {
          "internalType": "uint256",
          "name": "avatarId",
          "type": "uint256"
        }
      ],
      "stateMutability": "nonpayable",
      "type": "function"
    },
    {
      "inputs": [],
      "name": "getGenesisAvatarId",
      "outputs": [
        {
          "internalType": "uint256",
          "name": "",
          "type": "uint256"
        }
      ],
      "stateMutability": "view",
      "type": "function"
    },
    {
      "inputs": [
        {
          "internalType": "uint256",
          "name": "_humanId",
          "type": "uint256"
        }
      ],
      "name": "getHuman",
      "outputs": [
        {
          "components": [
            {
              "internalType": "uint256",
              "name": "id",
              "type": "uint256"
            },
            {
              "internalType": "uint256",
              "name": "dna",
              "type": "uint256"
            },
            {
              "internalType": "uint256",
              "name": "cradleOrigin",
              "type": "uint256"
            },
            {
              "internalType": "uint256",
              "name": "generation",
              "type": "uint256"
            },
            {
              "internalType": "uint256",
              "name": "genesisTimestamp",
              "type": "uint256"
            },
            {
              "internalType": "uint256",
              "name": "lineageMask",
              "type": "uint256"
            },
            {
              "internalType": "uint256",
              "name": "vitality",
              "type": "uint256"
            },
            {
              "internalType": "bool",
              "name": "awakened",
              "type": "bool"
            }
          ],
          "internalType": "struct LibAppStorage.Human",
          "name": "",
          "type": "tuple"
        }
      ],
      "stateMutability": "view",
      "type": "function"
    },
    {
      "inputs": [],
      "name": "getTotalHumans",
      "outputs": [
        {
          "internalType": "uint256",
          "name": "",
          "type": "uint256"
        }
      ],
      "stateMutability": "view",
      "type": "function"
    },
    {
      "inputs": [],
      "name": "isGenesisComplete",
      "outputs": [
        {
          "internalType": "bool",
          "name": "",
          "type": "bool"
        }
      ],
      "stateMutability": "view",
      "type": "function"
    }
  ],
  "bytecode": "0x608060405234801561001057600080fd5b50611513806100206000396000f3fe608060405234801561001057600080fd5b50600436106100625760003560e01c806309fb6e06146100675780632bed37c7146100855780634d587d46146100b557806396888733146100d3578063b1b202bd146100f1578063e1a3cae51461010f575b600080fd5b61006f61013f565b60405161007c9190610aa0565b60405180910390f35b61009f600480360381019061009a9190610aec565b61053a565b6040516100ac9190610be5565b60405180910390f35b6100bd61061e565b6040516100ca9190610aa0565b60405180910390f35b6100db610687565b6040516100e89190610c10565b60405180910390f35b6100f96106ac565b6040516101069190610aa0565b60405180910390f35b61012960048036038101906101249190610c2b565b6106c4565b6040516101369190610aa0565b60405180910390f35b60008061014a6108e6565b90508060150160009054906101000a900460ff161561019e576040517f08c379a000000000000000000000000000000000000000000000000000000000815260040161019590610cee565b60405180910390fd5b8060140160008154809291906101b390610d3d565b919050559150600082146101fc576040517f08c379a00000000000000000000000000000000000000000000000000000000081526004016101f390610df7565b60405180910390fd5b610204610a1d565b60005b600b8110156102905760ff42827fffffffffffffffffffffffffffffffffffffffffffffffffffffffffffffffff60405160200161024793929190610e38565b6040516020818303038152906040528051906020012060001c168282600b811061027457610273610e75565b5b602002018181525050808061028890610d3d565b915050610207565b50600061029c82610913565b905060008060649050604051806101000160405280878152602001848152602001600c81526020018381526020014281526020016102d985610971565b815260200182815260200160011515815250856013016000888152602001908152602001600020600082015181600001556020820151816001015560408201518160020155606082015181600301556080820151816004015560a0820151816005015560c0820151816006015560e08201518160070160006101000a81548160ff02191690831515021790555090505060018560150160006101000a81548160ff02191690831515021790555085856016018190555060005b600b8110156104bc5785600d01600082815260200190815260200160002060060160009054906101000a900460ff166104a9576040518060e001604052808281526020016040518060200160405280600081525081526020016040518060200160405280600081525081526020016001815260200160018152602001600081526020016001151581525086600d01600083815260200190815260200160002060008201518160000155602082015181600101908161045091906110ea565b50604082015181600201908161046691906110ea565b50606082015181600301556080820151816004015560a0820151816005015560c08201518160060160006101000a81548160ff0219169083151502179055509050505b80806104b490610d3d565b915050610392565b50857f8c1db4953a2d293b3d308e2e6669be4f99d821c9bbe2cf5f8be09a14e5aabf9b846040516104ed9190610aa0565b60405180910390a2857f09ad64a43394a1bd74a2640bbcd6ed6ad5ca9b3f1d39b78f8e11f98b6b0f394d84600c8560405161052a939291906111bc565b60405180910390a2505050505090565b610542610a40565b600061054c6108e6565b905080601401548310610594576040517f08c379a000000000000000000000000000000000000000000000000000000000815260040161058b90611265565b60405180910390fd5b80601301600084815260200190815260200160002060405180610100016040529081600082015481526020016001820154815260200160028201548152602001600382015481526020016004820154815260200160058201548152602001600682015481526020016007820160009054906101000a900460ff161515151581525050915050919050565b6000806106296108e6565b90508060150160009054906101000a900460ff1661067c576040517f08c379a0000000000000000000000000000000000000000000000000000000008152600401610673906112f7565b60405180910390fd5b806016015491505090565b6000806106926108e6565b90508060150160009054906101000a900460ff1691505090565b6000806106b76108e6565b9050806014015491505090565b6000806106cf6108e6565b9050600b8310610714576040517f08c379a000000000000000000000000000000000000000000000000000000000815260040161070b90611389565b60405180910390fd5b80600d01600084815260200190815260200160002060060160009054906101000a900460ff16610779576040517f08c379a00000000000000000000000000000000000000000000000000000000081526004016107709061141b565b60405180910390fd5b80601401600081548092919061078e90610d3d565b919050559150600061079f856109a4565b905060006107ae8660016109b2565b90506040518061010001604052808581526020018781526020018681526020018381526020014281526020016107e388610971565b815260200182815260200160011515815250836013016000868152602001908152602001600020600082015181600001556020820151816001015560408201518160020155606082015181600301556080820151816004015560a0820151816005015560c0820151816006015560e08201518160070160006101000a81548160ff02191690831515021790555090505082600d016000868152602001908152602001600020600301600081548092919061089c90610d3d565b9190505550837f09ad64a43394a1bd74a2640bbcd6ed6ad5ca9b3f1d39b78f8e11f98b6b0f394d8787856040516108d5939291906111bc565b60405180910390a250505092915050565b6000807ff3352211a7b52a4f44e5dc9a65127ad501a00f63fdbc5526899b5a61a2a966f990508091505090565b600080600090505b600b81101561096b57600060ff8483600b811061093b5761093a610e75565b5b6020020151169050600882610950919061143b565b81901b8317925050808061096390610d3d565b91505061091b565b50919050565b6000816040516020016109849190610aa0565b6040516020818303038152906040528051906020012060001c9050919050565b600061ffff82169050919050565b600080600084905060005b6101008110156109fa576001808316036109e05782806109dc90610d3d565b9350505b600182901c915080806109f290610d3d565b9150506109bd565b5060648483610a09919061143b565b610a1391906114ac565b9250505092915050565b604051806101600160405280600b90602082028036833780820191505090505090565b604051806101000160405280600081526020016000815260200160008152602001600081526020016000815260200160008152602001600081526020016000151581525090565b6000819050919050565b610a9a81610a87565b82525050565b6000602082019050610ab56000830184610a91565b92915050565b600080fd5b610ac981610a87565b8114610ad457600080fd5b50565b600081359050610ae681610ac0565b92915050565b600060208284031215610b0257610b01610abb565b5b6000610b1084828501610ad7565b91505092915050565b610b2281610a87565b82525050565b60008115159050919050565b610b3d81610b28565b82525050565b61010082016000820151610b5a6000850182610b19565b506020820151610b6d6020850182610b19565b506040820151610b806040850182610b19565b506060820151610b936060850182610b19565b506080820151610ba66080850182610b19565b5060a0820151610bb960a0850182610b19565b5060c0820151610bcc60c0850182610b19565b5060e0820151610bdf60e0850182610b34565b50505050565b600061010082019050610bfb6000830184610b43565b92915050565b610c0a81610b28565b82525050565b6000602082019050610c256000830184610c01565b92915050565b60008060408385031215610c4257610c41610abb565b5b6000610c5085828601610ad7565b9250506020610c6185828601610ad7565b9150509250929050565b600082825260208201905092915050565b7f48756d616e466163746f72793a2047656e6573697320616c726561647920636f60008201527f6d706c6574650000000000000000000000000000000000000000000000000000602082015250565b6000610cd8602683610c6b565b9150610ce382610c7c565b604082019050919050565b60006020820190508181036000830152610d0781610ccb565b9050919050565b7f4e487b7100000000000000000000000000000000000000000000000000000000600052601160045260246000fd5b6000610d4882610a87565b91507fffffffffffffffffffffffffffffffffffffffffffffffffffffffffffffffff8203610d7a57610d79610d0e565b5b600182019050919050565b7f48756d616e466163746f72793a20417661746172202330206d7573742062652060008201527f6669727374000000000000000000000000000000000000000000000000000000602082015250565b6000610de1602583610c6b565b9150610dec82610d85565b604082019050919050565b60006020820190508181036000830152610e1081610dd4565b9050919050565b6000819050919050565b610e32610e2d82610a87565b610e17565b82525050565b6000610e448286610e21565b602082019150610e548285610e21565b602082019150610e648284610e21565b602082019150819050949350505050565b7f4e487b7100000000000000000000000000000000000000000000000000000000600052603260045260246000fd5b600081519050919050565b7f4e487b7100000000000000000000000000000000000000000000000000000000600052604160045260246000fd5b7f4e487b7100000000000000000000000000000000000000000000000000000000600052602260045260246000fd5b60006002820490506001821680610f2557607f821691505b602082108103610f3857610f37610ede565b5b50919050565b60008190508160005260206000209050919050565b60006020601f8301049050919050565b600082821b905092915050565b600060088302610fa07fffffffffffffffffffffffffffffffffffffffffffffffffffffffffffffffff82610f63565b610faa8683610f63565b95508019841693508086168417925050509392505050565b6000819050919050565b6000610fe7610fe2610fdd84610a87565b610fc2565b610a87565b9050919050565b6000819050919050565b61100183610fcc565b61101561100d82610fee565b848454610f70565b825550505050565b600090565b61102a61101d565b611035818484610ff8565b505050565b5b818110156110595761104e600082611022565b60018101905061103b565b5050565b601f82111561109e5761106f81610f3e565b61107884610f53565b81016020851015611087578190505b61109b61109385610f53565b83018261103a565b50505b505050565b600082821c905092915050565b60006110c1600019846008026110a3565b1980831691505092915050565b60006110da83836110b0565b9150826002028217905092915050565b6110f382610ea4565b67ffffffffffffffff81111561110c5761110b610eaf565b5b6111168254610f0d565b61112182828561105d565b600060209050601f8311600181146111545760008415611142578287015190505b61114c85826110ce565b8655506111b4565b601f19841661116286610f3e565b60005b8281101561118a57848901518255600182019150602085019450602081019050611165565b868310156111a757848901516111a3601f8916826110b0565b8355505b6001600288020188555050505b505050505050565b60006060820190506111d16000830186610a91565b6111de6020830185610a91565b6111eb6040830184610a91565b949350505050565b7f48756d616e466163746f72793a2048756d616e20646f6573206e6f742065786960008201527f7374000000000000000000000000000000000000000000000000000000000000602082015250565b600061124f602283610c6b565b915061125a826111f3565b604082019050919050565b6000602082019050818103600083015261127e81611242565b9050919050565b7f48756d616e466163746f72793a2047656e65736973206e6f7420636f6d706c6560008201527f7465000000000000000000000000000000000000000000000000000000000000602082015250565b60006112e1602283610c6b565b91506112ec82611285565b604082019050919050565b60006020820190508181036000830152611310816112d4565b9050919050565b7f48756d616e466163746f72793a20496e76616c696420637261646c65206f726960008201527f67696e0000000000000000000000000000000000000000000000000000000000602082015250565b6000611373602383610c6b565b915061137e82611317565b604082019050919050565b600060208201905081810360008301526113a281611366565b9050919050565b7f48756d616e466163746f72793a20437261646c65206e6f74206177616b656e6560008201527f6400000000000000000000000000000000000000000000000000000000000000602082015250565b6000611405602183610c6b565b9150611410826113a9565b604082019050919050565b60006020820190508181036000830152611434816113f8565b9050919050565b600061144682610a87565b915061145183610a87565b925082820261145f81610a87565b9150828204841483151761147657611475610d0e565b5b5092915050565b7f4e487b7100000000000000000000000000000000000000000000000000000000600052601260045260246000fd5b60006114b782610a87565b91506114c283610a87565b9250826114d2576114d161147d565b5b82820690509291505056fea2646970667358221220ddfd03949f101d488c7a211e90dc10d156b3f3c902f6c53ed89d6bc6064ec90d64736f6c63430008140033",
  "linkReferences": {},
  "deployedLinkReferences": {}
}