{
  "_format": "hh-sol-artifact-1",
  "contractName": "MirrorAdversaryFacet",
  "sourceName": "contracts/facets/MirrorAdversaryFacet.sol",
  "abi": [
    {
      "anonymous": false,
      "inputs": [
        {
          "indexed": true,
          "internalType": "address",
          "name": "player",
          "type": "address"
        }
      ],
      "name": "AdversaryBufferFlushed",
      "type": "event"
    },
    {
      "anonymous": false,
      "inputs": [
        {
          "indexed": true,
          "internalType": "address",
          "name": "player",
          "type": "address"
        },
        {
          "indexed": false,
          "internalType": "uint256",
          "name": "nonce",
          "type": "uint256"
        }
      ],
      "name": "NonceConsumed",
      "type": "event"
    },
    {
      "anonymous": false,
      "inputs": [
        {
          "indexed": true,
          "internalType": "address",
          "name": "player",
          "type": "address"
        }
      ],
      "name": "PlayerLocked",
      "type": "event"
    },
    {
      "anonymous": false,
      "inputs": [
        {
          "indexed": true,
          "internalType": "address",
          "name": "player",
          "type": "address"
        },
        {
          "indexed": false,
          "internalType": "uint256",
          "name": "resetNonce",
          "type": "uint256"
        }
      ],
      "name": "PlayerUnlocked",
      "type": "event"
    },
    {
      "anonymous": false,
      "inputs": [
        {
          "indexed": true,
          "internalType": "address",
          "name": "player",
          "type": "address"
        },
        {
          "indexed": false,
          "internalType": "uint256",
          "name": "newScore",
          "type": "uint256"
        }
      ],
      "name": "StaticScoreIncreased",
      "type": "event"
    },
    {
      "inputs": [
        {
          "internalType": "uint256",
          "name": "_nonce",
          "type": "uint256"
        }
      ],
      "name": "consumeNonce",
      "outputs": [],
      "stateMutability": "nonpayable",
      "type": "function"
    },
    {
      "inputs": [
        {
          "internalType": "address",
          "name": "_player",
          "type": "address"
        }
      ],
      "name": "getAdversaryBuffer",
      "outputs": [
        {
          "internalType": "uint256",
          "name": "",
          "type": "uint256"
        }
      ],
      "stateMutability": "view",
      "type": "function"
    },
    {
      "inputs": [
        {
          "internalType": "address",
          "name": "_player",
          "type": "address"
        }
      ],
      "name": "getPlayerState",
      "outputs": [
        {
          "components": [
            {
              "internalType": "uint256",
              "name": "nonce",
              "type": "uint256"
            },
            {
              "internalType": "uint256",
              "name": "adversaryBuffer",
              "type": "uint256"
            },
            {
              "internalType": "uint256",
              "name": "staticScore",
              "type": "uint256"
            },
            {
              "internalType": "uint256",
              "name": "lastMatchTimestamp",
              "type": "uint256"
            },
            {
              "internalType": "bool",
              "name": "locked",
              "type": "bool"
            }
          ],
          "internalType": "struct LibAppStorage.PlayerState",
          "name": "",
          "type": "tuple"
        }
      ],
      "stateMutability": "view",
      "type": "function"
    },
    {
      "inputs": [
        {
          "internalType": "address",
          "name": "_player",
          "type": "address"
        }
      ],
      "name": "getValidNonce",
      "outputs": [
        {
          "internalType": "uint256",
          "name": "",
          "type": "uint256"
        }
      ],
      "stateMutability": "view",
      "type": "function"
    },
    {
      "inputs": [],
      "name": "initializePlayer",
      "outputs": [],
      "stateMutability": "nonpayable",
      "type": "function"
    },
    {
      "inputs": [
        {
          "internalType": "address",
          "name": "_player",
          "type": "address"
        }
      ],
      "name": "isLocked",
      "outputs": [
        {
          "internalType": "bool",
          "name": "",
          "type": "bool"
        }
      ],
      "stateMutability": "view",
      "type": "function"
    },
    {
      "inputs": [
        {
          "internalType": "uint256",
          "name": "_avatarId",
          "type": "uint256"
        }
      ],
      "name": "proveAncestralAlignment",
      "outputs": [],
      "stateMutability": "nonpayable",
      "type": "function"
    },
    {
      "inputs": [
        {
          "internalType": "uint256",
          "name": "_speedMs",
          "type": "uint256"
        }
      ],
      "name": "reportAnomaly",
      "outputs": [],
      "stateMutability": "nonpayable",
      "type": "function"
    },
    {
      "inputs": [
        {
          "internalType": "uint256",
          "name": "_threshold",
          "type": "uint256"
        }
      ],
      "name": "setStaticThreshold",
      "outputs": [],
      "stateMutability": "nonpayable",
      "type": "function"
    }
  ],
  "bytecode": "0x608060405234801561001057600080fd5b5061115e806100206000396000f3fe608060405234801561001057600080fd5b50600436106100935760003560e01c80636e5b3a73116100665780636e5b3a731461011e578063be751f8c1461013a578063c01ca43f14610156578063cf422b3614610186578063fb2261a1146101a257610093565b80631b20fac5146100985780632e163fee146100a25780634a4fbeec146100be578063582ab14a146100ee575b600080fd5b6100a06101d2565b005b6100bc60048036038101906100b79190610b39565b610321565b005b6100d860048036038101906100d39190610bc4565b61052e565b6040516100e59190610c0c565b60405180910390f35b61010860048036038101906101039190610bc4565b610595565b6040516101159190610c36565b60405180910390f35b61013860048036038101906101339190610b39565b6105ef565b005b610154600480360381019061014f9190610b39565b610608565b005b610170600480360381019061016b9190610bc4565b6107fe565b60405161017d9190610cd7565b60405180910390f35b6101a0600480360381019061019b9190610b39565b6108a9565b005b6101bc60048036038101906101b79190610bc4565b610a46565b6040516101c99190610c36565b60405180910390f35b60006101dc610aa0565b905060008160170160003373ffffffffffffffffffffffffffffffffffffffff1673ffffffffffffffffffffffffffffffffffffffff1681526020019081526020016000206000015414610265576040517f08c379a000000000000000000000000000000000000000000000000000000000815260040161025c90610d75565b60405180910390fd5b6040518060a00160405280600181526020016000815260200160008152602001428152602001600015158152508160170160003373ffffffffffffffffffffffffffffffffffffffff1673ffffffffffffffffffffffffffffffffffffffff1681526020019081526020016000206000820151816000015560208201518160010155604082015181600201556060820151816003015560808201518160040160006101000a81548160ff02191690831515021790555090505050565b600061032b610aa0565b905060008160170160003373ffffffffffffffffffffffffffffffffffffffff1673ffffffffffffffffffffffffffffffffffffffff168152602001908152602001600020905060008160000154116103b9576040517f08c379a00000000000000000000000000000000000000000000000000000000081526004016103b090610e07565b60405180910390fd5b61012c83101561040057600a8160020160008282546103d89190610e56565b9250508190555060018160010160008282546103f49190610e56565b92505081905550610455565b60008160020154111561042a5760018160020160008282546104229190610e8a565b925050819055505b60008160010154111561045457600181600101600082825461044c9190610e8a565b925050819055505b5b6019816001015410158061047157508160180154816002015410155b156104d75760018160040160006101000a81548160ff0219169083151502179055503373ffffffffffffffffffffffffffffffffffffffff167f19d4e6b2e1a7983367d01eecab80aeadbe8d7ba08538a4689528d44fb90b181460405160405180910390a25b3373ffffffffffffffffffffffffffffffffffffffff167febd6c55e27ec99a474aeab42f9c7791aaccc1ff6141bffb59a00408af40d629982600201546040516105219190610c36565b60405180910390a2505050565b600080610539610aa0565b90508060170160008473ffffffffffffffffffffffffffffffffffffffff1673ffffffffffffffffffffffffffffffffffffffff16815260200190815260200160002060040160009054906101000a900460ff16915050919050565b6000806105a0610aa0565b90508060170160008473ffffffffffffffffffffffffffffffffffffffff1673ffffffffffffffffffffffffffffffffffffffff16815260200190815260200160002060000154915050919050565b60006105f9610aa0565b90508181601801819055505050565b6000610612610aa0565b905060008160170160003373ffffffffffffffffffffffffffffffffffffffff1673ffffffffffffffffffffffffffffffffffffffff16815260200190815260200160002090508060040160009054906101000a900460ff166106aa576040517f08c379a00000000000000000000000000000000000000000000000000000000081526004016106a190610f30565b60405180910390fd5b81601301600084815260200190815260200160002060070160009054906101000a900460ff1661070f576040517f08c379a000000000000000000000000000000000000000000000000000000000815260040161070690610fc2565b60405180910390fd5b60008160040160006101000a81548160ff021916908315150217905550600081600101819055506000816002018190555080600001600081548092919061075590610fe2565b9190505550606482601801819055503373ffffffffffffffffffffffffffffffffffffffff167f9a4e3eb415e8be7e3718b21e566d611705f06cd7f8f700beff5c684a8c542fbf82600001546040516107ae9190610c36565b60405180910390a23373ffffffffffffffffffffffffffffffffffffffff167fae69fd34f724e4c01af1da0c914dca947ab82ccd09449b4ab0986ce75c367eb160405160405180910390a2505050565b610806610acd565b6000610810610aa0565b90508060170160008473ffffffffffffffffffffffffffffffffffffffff1673ffffffffffffffffffffffffffffffffffffffff1681526020019081526020016000206040518060a0016040529081600082015481526020016001820154815260200160028201548152602001600382015481526020016004820160009054906101000a900460ff161515151581525050915050919050565b60006108b3610aa0565b905060008160170160003373ffffffffffffffffffffffffffffffffffffffff1673ffffffffffffffffffffffffffffffffffffffff16815260200190815260200160002090506000816000015411610941576040517f08c379a000000000000000000000000000000000000000000000000000000000815260040161093890610e07565b60405180910390fd5b80600001548314610987576040517f08c379a000000000000000000000000000000000000000000000000000000000815260040161097e90611076565b60405180910390fd5b8060040160009054906101000a900460ff16156109d9576040517f08c379a00000000000000000000000000000000000000000000000000000000081526004016109d090611108565b60405180910390fd5b8060000160008154809291906109ee90610fe2565b91905055503373ffffffffffffffffffffffffffffffffffffffff167faa1809d0384da001717c4ef76b65b2be3948e1655c5a8760e04ef7d8a7efa91f84604051610a399190610c36565b60405180910390a2505050565b600080610a51610aa0565b90508060170160008473ffffffffffffffffffffffffffffffffffffffff1673ffffffffffffffffffffffffffffffffffffffff16815260200190815260200160002060010154915050919050565b6000807ff3352211a7b52a4f44e5dc9a65127ad501a00f63fdbc5526899b5a61a2a966f990508091505090565b6040518060a00160405280600081526020016000815260200160008152602001600081526020016000151581525090565b600080fd5b6000819050919050565b610b1681610b03565b8114610b2157600080fd5b50565b600081359050610b3381610b0d565b92915050565b600060208284031215610b4f57610b4e610afe565b5b6000610b5d84828501610b24565b91505092915050565b600073ffffffffffffffffffffffffffffffffffffffff82169050919050565b6000610b9182610b66565b9050919050565b610ba181610b86565b8114610bac57600080fd5b50565b600081359050610bbe81610b98565b92915050565b600060208284031215610bda57610bd9610afe565b5b6000610be884828501610baf565b91505092915050565b60008115159050919050565b610c0681610bf1565b82525050565b6000602082019050610c216000830184610bfd565b92915050565b610c3081610b03565b82525050565b6000602082019050610c4b6000830184610c27565b92915050565b610c5a81610b03565b82525050565b610c6981610bf1565b82525050565b60a082016000820151610c856000850182610c51565b506020820151610c986020850182610c51565b506040820151610cab6040850182610c51565b506060820151610cbe6060850182610c51565b506080820151610cd16080850182610c60565b50505050565b600060a082019050610cec6000830184610c6f565b92915050565b600082825260208201905092915050565b7f4d6972726f724164766572736172793a20506c6179657220616c72656164792060008201527f696e697469616c697a6564000000000000000000000000000000000000000000602082015250565b6000610d5f602b83610cf2565b9150610d6a82610d03565b604082019050919050565b60006020820190508181036000830152610d8e81610d52565b9050919050565b7f4d6972726f724164766572736172793a20506c61796572206e6f7420696e697460008201527f69616c697a656400000000000000000000000000000000000000000000000000602082015250565b6000610df1602783610cf2565b9150610dfc82610d95565b604082019050919050565b60006020820190508181036000830152610e2081610de4565b9050919050565b7f4e487b7100000000000000000000000000000000000000000000000000000000600052601160045260246000fd5b6000610e6182610b03565b9150610e6c83610b03565b9250828201905080821115610e8457610e83610e27565b5b92915050565b6000610e9582610b03565b9150610ea083610b03565b9250828203905081811115610eb857610eb7610e27565b5b92915050565b7f4d6972726f724164766572736172793a20506c61796572206e6f74206c6f636b60008201527f6564000000000000000000000000000000000000000000000000000000000000602082015250565b6000610f1a602283610cf2565b9150610f2582610ebe565b604082019050919050565b60006020820190508181036000830152610f4981610f0d565b9050919050565b7f4d6972726f724164766572736172793a20417661746172206e6f74206177616b60008201527f656e656400000000000000000000000000000000000000000000000000000000602082015250565b6000610fac602483610cf2565b9150610fb782610f50565b604082019050919050565b60006020820190508181036000830152610fdb81610f9f565b9050919050565b6000610fed82610b03565b91507fffffffffffffffffffffffffffffffffffffffffffffffffffffffffffffffff820361101f5761101e610e27565b5b600182019050919050565b7f4d6972726f724164766572736172793a20496e76616c6964206e6f6e63650000600082015250565b6000611060601e83610cf2565b915061106b8261102a565b602082019050919050565b6000602082019050818103600083015261108f81611053565b9050919050565b7f4d6972726f724164766572736172793a20506c61796572206973206c6f636b6560008201527f6400000000000000000000000000000000000000000000000000000000000000602082015250565b60006110f2602183610cf2565b91506110fd82611096565b604082019050919050565b60006020820190508181036000830152611121816110e5565b905091905056fea26469706673582212204575f13253d0211cd46f51d5440075f633cdc48fecab46bc590e3498786e8e1964736f6c63430008140033",
  "linkReferences": {},
  "deployedLinkReferences": {}
}